{
  "contractName": "ContractEstate",
  "abi": [
    {
      "inputs": [
        {
          "internalType": "address",
          "name": "smartPropertyMarket",
          "type": "address"
        }
      ],
      "stateMutability": "nonpayable",
      "type": "constructor"
    },
    {
      "anonymous": false,
      "inputs": [
        {
          "indexed": true,
          "internalType": "address",
          "name": "owner",
          "type": "address"
        },
        {
          "indexed": true,
          "internalType": "address",
          "name": "approved",
          "type": "address"
        },
        {
          "indexed": true,
          "internalType": "uint256",
          "name": "tokenId",
          "type": "uint256"
        }
      ],
      "name": "Approval",
      "type": "event"
    },
    {
      "anonymous": false,
      "inputs": [
        {
          "indexed": true,
          "internalType": "address",
          "name": "owner",
          "type": "address"
        },
        {
          "indexed": true,
          "internalType": "address",
          "name": "operator",
          "type": "address"
        },
        {
          "indexed": false,
          "internalType": "bool",
          "name": "approved",
          "type": "bool"
        }
      ],
      "name": "ApprovalForAll",
      "type": "event"
    },
    {
      "anonymous": false,
      "inputs": [
        {
          "indexed": true,
          "internalType": "address",
          "name": "previousOwner",
          "type": "address"
        },
        {
          "indexed": true,
          "internalType": "address",
          "name": "newOwner",
          "type": "address"
        }
      ],
      "name": "OwnershipTransferred",
      "type": "event"
    },
    {
      "anonymous": false,
      "inputs": [
        {
          "indexed": true,
          "internalType": "address",
          "name": "from",
          "type": "address"
        },
        {
          "indexed": true,
          "internalType": "address",
          "name": "to",
          "type": "address"
        },
        {
          "indexed": true,
          "internalType": "uint256",
          "name": "tokenId",
          "type": "uint256"
        }
      ],
      "name": "Transfer",
      "type": "event"
    },
    {
      "inputs": [],
      "name": "_owner",
      "outputs": [
        {
          "internalType": "address payable",
          "name": "",
          "type": "address"
        }
      ],
      "stateMutability": "view",
      "type": "function"
    },
    {
      "inputs": [
        {
          "internalType": "address",
          "name": "to",
          "type": "address"
        },
        {
          "internalType": "uint256",
          "name": "tokenId",
          "type": "uint256"
        }
      ],
      "name": "approve",
      "outputs": [],
      "stateMutability": "nonpayable",
      "type": "function"
    },
    {
      "inputs": [
        {
          "internalType": "address",
          "name": "owner",
          "type": "address"
        }
      ],
      "name": "balanceOf",
      "outputs": [
        {
          "internalType": "uint256",
          "name": "",
          "type": "uint256"
        }
      ],
      "stateMutability": "view",
      "type": "function"
    },
    {
      "inputs": [
        {
          "internalType": "uint256",
          "name": "tokenId",
          "type": "uint256"
        }
      ],
      "name": "getApproved",
      "outputs": [
        {
          "internalType": "address",
          "name": "",
          "type": "address"
        }
      ],
      "stateMutability": "view",
      "type": "function"
    },
    {
      "inputs": [
        {
          "internalType": "address",
          "name": "owner",
          "type": "address"
        },
        {
          "internalType": "address",
          "name": "operator",
          "type": "address"
        }
      ],
      "name": "isApprovedForAll",
      "outputs": [
        {
          "internalType": "bool",
          "name": "",
          "type": "bool"
        }
      ],
      "stateMutability": "view",
      "type": "function"
    },
    {
      "inputs": [],
      "name": "name",
      "outputs": [
        {
          "internalType": "string",
          "name": "",
          "type": "string"
        }
      ],
      "stateMutability": "view",
      "type": "function"
    },
    {
      "inputs": [],
      "name": "owner",
      "outputs": [
        {
          "internalType": "address",
          "name": "",
          "type": "address"
        }
      ],
      "stateMutability": "view",
      "type": "function"
    },
    {
      "inputs": [
        {
          "internalType": "uint256",
          "name": "tokenId",
          "type": "uint256"
        }
      ],
      "name": "ownerOf",
      "outputs": [
        {
          "internalType": "address",
          "name": "",
          "type": "address"
        }
      ],
      "stateMutability": "view",
      "type": "function"
    },
    {
      "inputs": [],
      "name": "renounceOwnership",
      "outputs": [],
      "stateMutability": "nonpayable",
      "type": "function"
    },
    {
      "inputs": [
        {
          "internalType": "address",
          "name": "from",
          "type": "address"
        },
        {
          "internalType": "address",
          "name": "to",
          "type": "address"
        },
        {
          "internalType": "uint256",
          "name": "tokenId",
          "type": "uint256"
        }
      ],
      "name": "safeTransferFrom",
      "outputs": [],
      "stateMutability": "nonpayable",
      "type": "function"
    },
    {
      "inputs": [
        {
          "internalType": "address",
          "name": "from",
          "type": "address"
        },
        {
          "internalType": "address",
          "name": "to",
          "type": "address"
        },
        {
          "internalType": "uint256",
          "name": "tokenId",
          "type": "uint256"
        },
        {
          "internalType": "bytes",
          "name": "_data",
          "type": "bytes"
        }
      ],
      "name": "safeTransferFrom",
      "outputs": [],
      "stateMutability": "nonpayable",
      "type": "function"
    },
    {
      "inputs": [
        {
          "internalType": "address",
          "name": "operator",
          "type": "address"
        },
        {
          "internalType": "bool",
          "name": "approved",
          "type": "bool"
        }
      ],
      "name": "setApprovalForAll",
      "outputs": [],
      "stateMutability": "nonpayable",
      "type": "function"
    },
    {
      "inputs": [
        {
          "internalType": "bytes4",
          "name": "interfaceId",
          "type": "bytes4"
        }
      ],
      "name": "supportsInterface",
      "outputs": [
        {
          "internalType": "bool",
          "name": "",
          "type": "bool"
        }
      ],
      "stateMutability": "view",
      "type": "function"
    },
    {
      "inputs": [],
      "name": "symbol",
      "outputs": [
        {
          "internalType": "string",
          "name": "",
          "type": "string"
        }
      ],
      "stateMutability": "view",
      "type": "function"
    },
    {
      "inputs": [
        {
          "internalType": "uint256",
          "name": "tokenId",
          "type": "uint256"
        }
      ],
      "name": "tokenURI",
      "outputs": [
        {
          "internalType": "string",
          "name": "",
          "type": "string"
        }
      ],
      "stateMutability": "view",
      "type": "function"
    },
    {
      "inputs": [
        {
          "internalType": "address",
          "name": "from",
          "type": "address"
        },
        {
          "internalType": "address",
          "name": "to",
          "type": "address"
        },
        {
          "internalType": "uint256",
          "name": "tokenId",
          "type": "uint256"
        }
      ],
      "name": "transferFrom",
      "outputs": [],
      "stateMutability": "nonpayable",
      "type": "function"
    },
    {
      "inputs": [
        {
          "internalType": "address",
          "name": "newOwner",
          "type": "address"
        }
      ],
      "name": "transferOwnership",
      "outputs": [],
      "stateMutability": "nonpayable",
      "type": "function"
    },
    {
      "inputs": [
        {
          "internalType": "string",
          "name": "tokenURI",
          "type": "string"
        },
        {
          "internalType": "uint256",
          "name": "_price",
          "type": "uint256"
        },
        {
          "internalType": "uint256",
          "name": "_deed",
          "type": "uint256"
        }
      ],
      "name": "createPropertyNft",
      "outputs": [
        {
          "internalType": "uint256",
          "name": "",
          "type": "uint256"
        }
      ],
      "stateMutability": "nonpayable",
      "type": "function"
    },
    {
      "inputs": [
        {
          "internalType": "uint256",
          "name": "deed",
          "type": "uint256"
        }
      ],
      "name": "checkIfPropertyExists",
      "outputs": [
        {
          "internalType": "bool",
          "name": "",
          "type": "bool"
        }
      ],
      "stateMutability": "view",
      "type": "function"
    },
    {
      "inputs": [],
      "name": "getUserProperties",
      "outputs": [
        {
          "components": [
            {
              "internalType": "uint256",
              "name": "deedNumber",
              "type": "uint256"
            },
            {
              "internalType": "address",
              "name": "owner",
              "type": "address"
            },
            {
              "internalType": "string",
              "name": "tokenUri",
              "type": "string"
            },
            {
              "internalType": "uint256",
              "name": "price",
              "type": "uint256"
            }
          ],
          "internalType": "struct ContractEstate.propertyNft[]",
          "name": "",
          "type": "tuple[]"
        }
      ],
      "stateMutability": "view",
      "type": "function"
    },
    {
      "inputs": [],
      "name": "getAllProperties",
      "outputs": [
        {
          "components": [
            {
              "internalType": "uint256",
              "name": "deedNumber",
              "type": "uint256"
            },
            {
              "internalType": "address",
              "name": "owner",
              "type": "address"
            },
            {
              "internalType": "string",
              "name": "tokenUri",
              "type": "string"
            },
            {
              "internalType": "uint256",
              "name": "price",
              "type": "uint256"
            }
          ],
          "internalType": "struct ContractEstate.propertyNft[]",
          "name": "",
          "type": "tuple[]"
        }
      ],
      "stateMutability": "view",
      "type": "function"
    }
  ],
  "bytecode": "0x60806040523480156200001157600080fd5b5060405162003c7738038062003c77833981810160405281019062000037919062000315565b6040518060400160405280601481526020017f5469746c65205472616e7366657220546f6b656e0000000000000000000000008152506040518060400160405280600381526020017f54545400000000000000000000000000000000000000000000000000000000008152508160009080519060200190620000bb9291906200024e565b508060019080519060200190620000d49291906200024e565b505050620000f7620000eb6200018060201b60201c565b6200018860201b60201c565b33600b60006101000a81548173ffffffffffffffffffffffffffffffffffffffff021916908373ffffffffffffffffffffffffffffffffffffffff16021790555080600a60006101000a81548173ffffffffffffffffffffffffffffffffffffffff021916908373ffffffffffffffffffffffffffffffffffffffff16021790555050620003f4565b600033905090565b6000600760009054906101000a900473ffffffffffffffffffffffffffffffffffffffff16905081600760006101000a81548173ffffffffffffffffffffffffffffffffffffffff021916908373ffffffffffffffffffffffffffffffffffffffff1602179055508173ffffffffffffffffffffffffffffffffffffffff168173ffffffffffffffffffffffffffffffffffffffff167f8be0079c531659141344cd1fd0a4f28419497f9722a3daafe3b4186f6b6457e060405160405180910390a35050565b8280546200025c9062000375565b90600052602060002090601f016020900481019282620002805760008555620002cc565b82601f106200029b57805160ff1916838001178555620002cc565b82800160010185558215620002cc579182015b82811115620002cb578251825591602001919060010190620002ae565b5b509050620002db9190620002df565b5090565b5b80821115620002fa576000816000905550600101620002e0565b5090565b6000815190506200030f81620003da565b92915050565b6000602082840312156200032857600080fd5b60006200033884828501620002fe565b91505092915050565b60006200034e8262000355565b9050919050565b600073ffffffffffffffffffffffffffffffffffffffff82169050919050565b600060028204905060018216806200038e57607f821691505b60208210811415620003a557620003a4620003ab565b5b50919050565b7f4e487b7100000000000000000000000000000000000000000000000000000000600052602260045260246000fd5b620003e58162000341565b8114620003f157600080fd5b50565b61387380620004046000396000f3fe608060405234801561001057600080fd5b50600436106101375760003560e01c8063715018a6116100b8578063b2bdfa7b1161007c578063b2bdfa7b1461033c578063b88d4fde1461035a578063b92b85d214610376578063c87b56dd146103a6578063e985e9c5146103d6578063f2fde38b1461040657610137565b8063715018a6146102aa5780638da5cb5b146102b457806390e26997146102d257806395d89b4114610302578063a22cb4651461032057610137565b80633d51402c116100ff5780633d51402c146101f257806342842e0e146102105780635d09be601461022c5780636352211e1461024a57806370a082311461027a57610137565b806301ffc9a71461013c57806306fdde031461016c578063081812fc1461018a578063095ea7b3146101ba57806323b872dd146101d6575b600080fd5b610156600480360381019061015191906126cf565b610422565b604051610163919061312f565b60405180910390f35b610174610504565b604051610181919061314a565b60405180910390f35b6101a4600480360381019061019f9190612788565b610596565b6040516101b1919061308b565b60405180910390f35b6101d460048036038101906101cf9190612693565b61061b565b005b6101f060048036038101906101eb919061258d565b610733565b005b6101fa610793565b604051610207919061310d565b60405180910390f35b61022a6004803603810190610225919061258d565b6109c3565b005b6102346109e3565b604051610241919061310d565b60405180910390f35b610264600480360381019061025f9190612788565b610d40565b604051610271919061308b565b60405180910390f35b610294600480360381019061028f9190612528565b610df2565b6040516102a191906133ac565b60405180910390f35b6102b2610eaa565b005b6102bc610f32565b6040516102c9919061308b565b60405180910390f35b6102ec60048036038101906102e79190612721565b610f5c565b6040516102f991906133ac565b60405180910390f35b61030a6110b9565b604051610317919061314a565b60405180910390f35b61033a60048036038101906103359190612657565b61114b565b005b610344611161565b60405161035191906130a6565b60405180910390f35b610374600480360381019061036f91906125dc565b611187565b005b610390600480360381019061038b9190612788565b6111e9565b60405161039d919061312f565b60405180910390f35b6103c060048036038101906103bb9190612788565b6111fb565b6040516103cd919061314a565b60405180910390f35b6103f060048036038101906103eb9190612551565b61134d565b6040516103fd919061312f565b60405180910390f35b610420600480360381019061041b9190612528565b6113e1565b005b60007f80ac58cd000000000000000000000000000000000000000000000000000000007bffffffffffffffffffffffffffffffffffffffffffffffffffffffff1916827bffffffffffffffffffffffffffffffffffffffffffffffffffffffff191614806104ed57507f5b5e139f000000000000000000000000000000000000000000000000000000007bffffffffffffffffffffffffffffffffffffffffffffffffffffffff1916827bffffffffffffffffffffffffffffffffffffffffffffffffffffffff1916145b806104fd57506104fc826114d9565b5b9050919050565b60606000805461051390613668565b80601f016020809104026020016040519081016040528092919081815260200182805461053f90613668565b801561058c5780601f106105615761010080835404028352916020019161058c565b820191906000526020600020905b81548152906001019060200180831161056f57829003601f168201915b5050505050905090565b60006105a182611543565b6105e0576040517f08c379a00000000000000000000000000000000000000000000000000000000081526004016105d7906132ec565b60405180910390fd5b6004600083815260200190815260200160002060009054906101000a900473ffffffffffffffffffffffffffffffffffffffff169050919050565b600061062682610d40565b90508073ffffffffffffffffffffffffffffffffffffffff168373ffffffffffffffffffffffffffffffffffffffff161415610697576040517f08c379a000000000000000000000000000000000000000000000000000000000815260040161068e9061336c565b60405180910390fd5b8073ffffffffffffffffffffffffffffffffffffffff166106b66115af565b73ffffffffffffffffffffffffffffffffffffffff1614806106e557506106e4816106df6115af565b61134d565b5b610724576040517f08c379a000000000000000000000000000000000000000000000000000000000815260040161071b9061322c565b60405180910390fd5b61072e83836115b7565b505050565b61074461073e6115af565b82611670565b610783576040517f08c379a000000000000000000000000000000000000000000000000000000000815260040161077a9061338c565b60405180910390fd5b61078e83838361174e565b505050565b6060600060085490506000808267ffffffffffffffff8111156107df577f4e487b7100000000000000000000000000000000000000000000000000000000600052604160045260246000fd5b60405190808252806020026020018201604052801561081857816020015b61080561230e565b8152602001906001900390816107fd5790505b50905060005b838110156109b957600c600060096000848152602001908152602001600020548152602001908152602001600020604051806080016040529081600082015481526020016001820160009054906101000a900473ffffffffffffffffffffffffffffffffffffffff1673ffffffffffffffffffffffffffffffffffffffff1673ffffffffffffffffffffffffffffffffffffffff1681526020016002820180546108c790613668565b80601f01602080910402602001604051908101604052809291908181526020018280546108f390613668565b80156109405780601f1061091557610100808354040283529160200191610940565b820191906000526020600020905b81548152906001019060200180831161092357829003601f168201915b5050505050815260200160038201548152505082848151811061098c577f4e487b7100000000000000000000000000000000000000000000000000000000600052603260045260246000fd5b60200260200101819052506001836109a491906134e5565b925080806109b19061369a565b91505061081e565b5080935050505090565b6109de83838360405180602001604052806000815250611187565b505050565b60606000600854905060008060005b83811015610a9a573373ffffffffffffffffffffffffffffffffffffffff16600c60006009600085815260200190815260200160002054815260200190815260200160002060010160009054906101000a900473ffffffffffffffffffffffffffffffffffffffff1673ffffffffffffffffffffffffffffffffffffffff161415610a8757600183610a8491906134e5565b92505b8080610a929061369a565b9150506109f2565b5060008267ffffffffffffffff811115610add577f4e487b7100000000000000000000000000000000000000000000000000000000600052604160045260246000fd5b604051908082528060200260200182016040528015610b1657816020015b610b0361230e565b815260200190600190039081610afb5790505b50905060005b84811015610d35573373ffffffffffffffffffffffffffffffffffffffff16600c60006009600085815260200190815260200160002054815260200190815260200160002060010160009054906101000a900473ffffffffffffffffffffffffffffffffffffffff1673ffffffffffffffffffffffffffffffffffffffff161415610d2257600c600060096000848152602001908152602001600020548152602001908152602001600020604051806080016040529081600082015481526020016001820160009054906101000a900473ffffffffffffffffffffffffffffffffffffffff1673ffffffffffffffffffffffffffffffffffffffff1673ffffffffffffffffffffffffffffffffffffffff168152602001600282018054610c4290613668565b80601f0160208091040260200160405190810160405280929190818152602001828054610c6e90613668565b8015610cbb5780601f10610c9057610100808354040283529160200191610cbb565b820191906000526020600020905b815481529060010190602001808311610c9e57829003601f168201915b50505050508152602001600382015481525050828481518110610d07577f4e487b7100000000000000000000000000000000000000000000000000000000600052603260045260246000fd5b6020026020010181905250600183610d1f91906134e5565b92505b8080610d2d9061369a565b915050610b1c565b508094505050505090565b6000806002600084815260200190815260200160002060009054906101000a900473ffffffffffffffffffffffffffffffffffffffff169050600073ffffffffffffffffffffffffffffffffffffffff168173ffffffffffffffffffffffffffffffffffffffff161415610de9576040517f08c379a0000000000000000000000000000000000000000000000000000000008152600401610de09061326c565b60405180910390fd5b80915050919050565b60008073ffffffffffffffffffffffffffffffffffffffff168273ffffffffffffffffffffffffffffffffffffffff161415610e63576040517f08c379a0000000000000000000000000000000000000000000000000000000008152600401610e5a9061324c565b60405180910390fd5b600360008373ffffffffffffffffffffffffffffffffffffffff1673ffffffffffffffffffffffffffffffffffffffff168152602001908152602001600020549050919050565b610eb26115af565b73ffffffffffffffffffffffffffffffffffffffff16610ed0610f32565b73ffffffffffffffffffffffffffffffffffffffff1614610f26576040517f08c379a0000000000000000000000000000000000000000000000000000000008152600401610f1d9061330c565b60405180910390fd5b610f3060006119aa565b565b6000600760009054906101000a900473ffffffffffffffffffffffffffffffffffffffff16905090565b6000808311610f6a57600080fd5b60008211610f7757600080fd5b610f813383611a70565b610f8b8285611a8e565b610fb8600a60009054906101000a900473ffffffffffffffffffffffffffffffffffffffff16600161114b565b816009600060085481526020019081526020016000208190555060405180608001604052808381526020013373ffffffffffffffffffffffffffffffffffffffff16815260200185815260200184815250600c60008481526020019081526020016000206000820151816000015560208201518160010160006101000a81548173ffffffffffffffffffffffffffffffffffffffff021916908373ffffffffffffffffffffffffffffffffffffffff160217905550604082015181600201908051906020019061108992919061234c565b5060608201518160030155905050600860008154809291906110aa9061369a565b91905055508190509392505050565b6060600180546110c890613668565b80601f01602080910402602001604051908101604052809291908181526020018280546110f490613668565b80156111415780601f1061111657610100808354040283529160200191611141565b820191906000526020600020905b81548152906001019060200180831161112457829003601f168201915b5050505050905090565b61115d6111566115af565b8383611b02565b5050565b600b60009054906101000a900473ffffffffffffffffffffffffffffffffffffffff1681565b6111986111926115af565b83611670565b6111d7576040517f08c379a00000000000000000000000000000000000000000000000000000000081526004016111ce9061338c565b60405180910390fd5b6111e384848484611c6f565b50505050565b60006111f482611543565b9050919050565b606061120682611543565b611245576040517f08c379a000000000000000000000000000000000000000000000000000000000815260040161123c906132cc565b60405180910390fd5b600060066000848152602001908152602001600020805461126590613668565b80601f016020809104026020016040519081016040528092919081815260200182805461129190613668565b80156112de5780601f106112b3576101008083540402835291602001916112de565b820191906000526020600020905b8154815290600101906020018083116112c157829003601f168201915b5050505050905060006112ef611ccb565b9050600081511415611305578192505050611348565b60008251111561133a578082604051602001611322929190613067565b60405160208183030381529060405292505050611348565b61134384611ce2565b925050505b919050565b6000600560008473ffffffffffffffffffffffffffffffffffffffff1673ffffffffffffffffffffffffffffffffffffffff16815260200190815260200160002060008373ffffffffffffffffffffffffffffffffffffffff1673ffffffffffffffffffffffffffffffffffffffff16815260200190815260200160002060009054906101000a900460ff16905092915050565b6113e96115af565b73ffffffffffffffffffffffffffffffffffffffff16611407610f32565b73ffffffffffffffffffffffffffffffffffffffff161461145d576040517f08c379a00000000000000000000000000000000000000000000000000000000081526004016114549061330c565b60405180910390fd5b600073ffffffffffffffffffffffffffffffffffffffff168173ffffffffffffffffffffffffffffffffffffffff1614156114cd576040517f08c379a00000000000000000000000000000000000000000000000000000000081526004016114c49061318c565b60405180910390fd5b6114d6816119aa565b50565b60007f01ffc9a7000000000000000000000000000000000000000000000000000000007bffffffffffffffffffffffffffffffffffffffffffffffffffffffff1916827bffffffffffffffffffffffffffffffffffffffffffffffffffffffff1916149050919050565b60008073ffffffffffffffffffffffffffffffffffffffff166002600084815260200190815260200160002060009054906101000a900473ffffffffffffffffffffffffffffffffffffffff1673ffffffffffffffffffffffffffffffffffffffff1614159050919050565b600033905090565b816004600083815260200190815260200160002060006101000a81548173ffffffffffffffffffffffffffffffffffffffff021916908373ffffffffffffffffffffffffffffffffffffffff160217905550808273ffffffffffffffffffffffffffffffffffffffff1661162a83610d40565b73ffffffffffffffffffffffffffffffffffffffff167f8c5be1e5ebec7d5bd14f71427d1e84f3dd0314c0f7b2291e5b200ac8c7c3b92560405160405180910390a45050565b600061167b82611543565b6116ba576040517f08c379a00000000000000000000000000000000000000000000000000000000081526004016116b19061320c565b60405180910390fd5b60006116c583610d40565b90508073ffffffffffffffffffffffffffffffffffffffff168473ffffffffffffffffffffffffffffffffffffffff16148061173457508373ffffffffffffffffffffffffffffffffffffffff1661171c84610596565b73ffffffffffffffffffffffffffffffffffffffff16145b806117455750611744818561134d565b5b91505092915050565b8273ffffffffffffffffffffffffffffffffffffffff1661176e82610d40565b73ffffffffffffffffffffffffffffffffffffffff16146117c4576040517f08c379a00000000000000000000000000000000000000000000000000000000081526004016117bb9061332c565b60405180910390fd5b600073ffffffffffffffffffffffffffffffffffffffff168273ffffffffffffffffffffffffffffffffffffffff161415611834576040517f08c379a000000000000000000000000000000000000000000000000000000000815260040161182b906131cc565b60405180910390fd5b61183f838383611d89565b61184a6000826115b7565b6001600360008573ffffffffffffffffffffffffffffffffffffffff1673ffffffffffffffffffffffffffffffffffffffff168152602001908152602001600020600082825461189a919061356c565b925050819055506001600360008473ffffffffffffffffffffffffffffffffffffffff1673ffffffffffffffffffffffffffffffffffffffff16815260200190815260200160002060008282546118f191906134e5565b92505081905550816002600083815260200190815260200160002060006101000a81548173ffffffffffffffffffffffffffffffffffffffff021916908373ffffffffffffffffffffffffffffffffffffffff160217905550808273ffffffffffffffffffffffffffffffffffffffff168473ffffffffffffffffffffffffffffffffffffffff167fddf252ad1be2c89b69c2b068fc378daa952ba7f163c4a11628f55a4df523b3ef60405160405180910390a4505050565b6000600760009054906101000a900473ffffffffffffffffffffffffffffffffffffffff16905081600760006101000a81548173ffffffffffffffffffffffffffffffffffffffff021916908373ffffffffffffffffffffffffffffffffffffffff1602179055508173ffffffffffffffffffffffffffffffffffffffff168173ffffffffffffffffffffffffffffffffffffffff167f8be0079c531659141344cd1fd0a4f28419497f9722a3daafe3b4186f6b6457e060405160405180910390a35050565b611a8a828260405180602001604052806000815250611d8e565b5050565b611a9782611543565b611ad6576040517f08c379a0000000000000000000000000000000000000000000000000000000008152600401611acd9061328c565b60405180910390fd5b80600660008481526020019081526020016000209080519060200190611afd92919061234c565b505050565b8173ffffffffffffffffffffffffffffffffffffffff168373ffffffffffffffffffffffffffffffffffffffff161415611b71576040517f08c379a0000000000000000000000000000000000000000000000000000000008152600401611b68906131ec565b60405180910390fd5b80600560008573ffffffffffffffffffffffffffffffffffffffff1673ffffffffffffffffffffffffffffffffffffffff16815260200190815260200160002060008473ffffffffffffffffffffffffffffffffffffffff1673ffffffffffffffffffffffffffffffffffffffff16815260200190815260200160002060006101000a81548160ff0219169083151502179055508173ffffffffffffffffffffffffffffffffffffffff168373ffffffffffffffffffffffffffffffffffffffff167f17307eab39ab6107e8899845ad3d59bd9653f200f220920489ca2b5937696c3183604051611c62919061312f565b60405180910390a3505050565b611c7a84848461174e565b611c8684848484611de9565b611cc5576040517f08c379a0000000000000000000000000000000000000000000000000000000008152600401611cbc9061316c565b60405180910390fd5b50505050565b606060405180602001604052806000815250905090565b6060611ced82611543565b611d2c576040517f08c379a0000000000000000000000000000000000000000000000000000000008152600401611d239061334c565b60405180910390fd5b6000611d36611ccb565b90506000815111611d565760405180602001604052806000815250611d81565b80611d6084611f80565b604051602001611d71929190613067565b6040516020818303038152906040525b915050919050565b505050565b611d98838361212d565b611da56000848484611de9565b611de4576040517f08c379a0000000000000000000000000000000000000000000000000000000008152600401611ddb9061316c565b60405180910390fd5b505050565b6000611e0a8473ffffffffffffffffffffffffffffffffffffffff166122fb565b15611f73578373ffffffffffffffffffffffffffffffffffffffff1663150b7a02611e336115af565b8786866040518563ffffffff1660e01b8152600401611e5594939291906130c1565b602060405180830381600087803b158015611e6f57600080fd5b505af1925050508015611ea057506040513d601f19601f82011682018060405250810190611e9d91906126f8565b60015b611f23573d8060008114611ed0576040519150601f19603f3d011682016040523d82523d6000602084013e611ed5565b606091505b50600081511415611f1b576040517f08c379a0000000000000000000000000000000000000000000000000000000008152600401611f129061316c565b60405180910390fd5b805181602001fd5b63150b7a0260e01b7bffffffffffffffffffffffffffffffffffffffffffffffffffffffff1916817bffffffffffffffffffffffffffffffffffffffffffffffffffffffff191614915050611f78565b600190505b949350505050565b60606000821415611fc8576040518060400160405280600181526020017f30000000000000000000000000000000000000000000000000000000000000008152509050612128565b600082905060005b60008214611ffa578080611fe39061369a565b915050600a82611ff3919061353b565b9150611fd0565b60008167ffffffffffffffff81111561203c577f4e487b7100000000000000000000000000000000000000000000000000000000600052604160045260246000fd5b6040519080825280601f01601f19166020018201604052801561206e5781602001600182028036833780820191505090505b5090505b6000851461212157600182612087919061356c565b9150600a8561209691906136e3565b60306120a291906134e5565b60f81b8183815181106120de577f4e487b7100000000000000000000000000000000000000000000000000000000600052603260045260246000fd5b60200101907effffffffffffffffffffffffffffffffffffffffffffffffffffffffffffff1916908160001a905350600a8561211a919061353b565b9450612072565b8093505050505b919050565b600073ffffffffffffffffffffffffffffffffffffffff168273ffffffffffffffffffffffffffffffffffffffff16141561219d576040517f08c379a0000000000000000000000000000000000000000000000000000000008152600401612194906132ac565b60405180910390fd5b6121a681611543565b156121e6576040517f08c379a00000000000000000000000000000000000000000000000000000000081526004016121dd906131ac565b60405180910390fd5b6121f260008383611d89565b6001600360008473ffffffffffffffffffffffffffffffffffffffff1673ffffffffffffffffffffffffffffffffffffffff168152602001908152602001600020600082825461224291906134e5565b92505081905550816002600083815260200190815260200160002060006101000a81548173ffffffffffffffffffffffffffffffffffffffff021916908373ffffffffffffffffffffffffffffffffffffffff160217905550808273ffffffffffffffffffffffffffffffffffffffff16600073ffffffffffffffffffffffffffffffffffffffff167fddf252ad1be2c89b69c2b068fc378daa952ba7f163c4a11628f55a4df523b3ef60405160405180910390a45050565b600080823b905060008111915050919050565b604051806080016040528060008152602001600073ffffffffffffffffffffffffffffffffffffffff16815260200160608152602001600081525090565b82805461235890613668565b90600052602060002090601f01602090048101928261237a57600085556123c1565b82601f1061239357805160ff19168380011785556123c1565b828001600101855582156123c1579182015b828111156123c05782518255916020019190600101906123a5565b5b5090506123ce91906123d2565b5090565b5b808211156123eb5760008160009055506001016123d3565b5090565b60006124026123fd846133f8565b6133c7565b90508281526020810184848401111561241a57600080fd5b612425848285613626565b509392505050565b600061244061243b84613428565b6133c7565b90508281526020810184848401111561245857600080fd5b612463848285613626565b509392505050565b60008135905061247a816137e1565b92915050565b60008135905061248f816137f8565b92915050565b6000813590506124a48161380f565b92915050565b6000815190506124b98161380f565b92915050565b600082601f8301126124d057600080fd5b81356124e08482602086016123ef565b91505092915050565b600082601f8301126124fa57600080fd5b813561250a84826020860161242d565b91505092915050565b60008135905061252281613826565b92915050565b60006020828403121561253a57600080fd5b60006125488482850161246b565b91505092915050565b6000806040838503121561256457600080fd5b60006125728582860161246b565b92505060206125838582860161246b565b9150509250929050565b6000806000606084860312156125a257600080fd5b60006125b08682870161246b565b93505060206125c18682870161246b565b92505060406125d286828701612513565b9150509250925092565b600080600080608085870312156125f257600080fd5b60006126008782880161246b565b94505060206126118782880161246b565b935050604061262287828801612513565b925050606085013567ffffffffffffffff81111561263f57600080fd5b61264b878288016124bf565b91505092959194509250565b6000806040838503121561266a57600080fd5b60006126788582860161246b565b925050602061268985828601612480565b9150509250929050565b600080604083850312156126a657600080fd5b60006126b48582860161246b565b92505060206126c585828601612513565b9150509250929050565b6000602082840312156126e157600080fd5b60006126ef84828501612495565b91505092915050565b60006020828403121561270a57600080fd5b6000612718848285016124aa565b91505092915050565b60008060006060848603121561273657600080fd5b600084013567ffffffffffffffff81111561275057600080fd5b61275c868287016124e9565b935050602061276d86828701612513565b925050604061277e86828701612513565b9150509250925092565b60006020828403121561279a57600080fd5b60006127a884828501612513565b91505092915050565b60006127bd8383612fe6565b905092915050565b6127ce816135b2565b82525050565b6127dd816135a0565b82525050565b6127ec816135a0565b82525050565b60006127fd82613468565b6128078185613496565b93508360208202850161281985613458565b8060005b85811015612855578484038952815161283685826127b1565b945061284183613489565b925060208a0199505060018101905061281d565b50829750879550505050505092915050565b612870816135c4565b82525050565b600061288182613473565b61288b81856134a7565b935061289b818560208601613635565b6128a4816137d0565b840191505092915050565b60006128ba8261347e565b6128c481856134b8565b93506128d4818560208601613635565b6128dd816137d0565b840191505092915050565b60006128f38261347e565b6128fd81856134c9565b935061290d818560208601613635565b612916816137d0565b840191505092915050565b600061292c8261347e565b61293681856134da565b9350612946818560208601613635565b80840191505092915050565b600061295f6032836134c9565b91507f4552433732313a207472616e7366657220746f206e6f6e20455243373231526560008301527f63656976657220696d706c656d656e74657200000000000000000000000000006020830152604082019050919050565b60006129c56026836134c9565b91507f4f776e61626c653a206e6577206f776e657220697320746865207a65726f206160008301527f64647265737300000000000000000000000000000000000000000000000000006020830152604082019050919050565b6000612a2b601c836134c9565b91507f4552433732313a20746f6b656e20616c7265616479206d696e746564000000006000830152602082019050919050565b6000612a6b6024836134c9565b91507f4552433732313a207472616e7366657220746f20746865207a65726f2061646460008301527f72657373000000000000000000000000000000000000000000000000000000006020830152604082019050919050565b6000612ad16019836134c9565b91507f4552433732313a20617070726f766520746f2063616c6c6572000000000000006000830152602082019050919050565b6000612b11602c836134c9565b91507f4552433732313a206f70657261746f7220717565727920666f72206e6f6e657860008301527f697374656e7420746f6b656e00000000000000000000000000000000000000006020830152604082019050919050565b6000612b776038836134c9565b91507f4552433732313a20617070726f76652063616c6c6572206973206e6f74206f7760008301527f6e6572206e6f7220617070726f76656420666f7220616c6c00000000000000006020830152604082019050919050565b6000612bdd602a836134c9565b91507f4552433732313a2062616c616e636520717565727920666f7220746865207a6560008301527f726f2061646472657373000000000000000000000000000000000000000000006020830152604082019050919050565b6000612c436029836134c9565b91507f4552433732313a206f776e657220717565727920666f72206e6f6e657869737460008301527f656e7420746f6b656e00000000000000000000000000000000000000000000006020830152604082019050919050565b6000612ca9602e836134c9565b91507f45524337323155524953746f726167653a2055524920736574206f66206e6f6e60008301527f6578697374656e7420746f6b656e0000000000000000000000000000000000006020830152604082019050919050565b6000612d0f6020836134c9565b91507f4552433732313a206d696e7420746f20746865207a65726f20616464726573736000830152602082019050919050565b6000612d4f6031836134c9565b91507f45524337323155524953746f726167653a2055524920717565727920666f722060008301527f6e6f6e6578697374656e7420746f6b656e0000000000000000000000000000006020830152604082019050919050565b6000612db5602c836134c9565b91507f4552433732313a20617070726f76656420717565727920666f72206e6f6e657860008301527f697374656e7420746f6b656e00000000000000000000000000000000000000006020830152604082019050919050565b6000612e1b6020836134c9565b91507f4f776e61626c653a2063616c6c6572206973206e6f7420746865206f776e65726000830152602082019050919050565b6000612e5b6029836134c9565b91507f4552433732313a207472616e73666572206f6620746f6b656e2074686174206960008301527f73206e6f74206f776e00000000000000000000000000000000000000000000006020830152604082019050919050565b6000612ec1602f836134c9565b91507f4552433732314d657461646174613a2055524920717565727920666f72206e6f60008301527f6e6578697374656e7420746f6b656e00000000000000000000000000000000006020830152604082019050919050565b6000612f276021836134c9565b91507f4552433732313a20617070726f76616c20746f2063757272656e74206f776e6560008301527f72000000000000000000000000000000000000000000000000000000000000006020830152604082019050919050565b6000612f8d6031836134c9565b91507f4552433732313a207472616e736665722063616c6c6572206973206e6f74206f60008301527f776e6572206e6f7220617070726f7665640000000000000000000000000000006020830152604082019050919050565b6000608083016000830151612ffe6000860182613049565b50602083015161301160208601826127d4565b506040830151848203604086015261302982826128af565b915050606083015161303e6060860182613049565b508091505092915050565b6130528161361c565b82525050565b6130618161361c565b82525050565b60006130738285612921565b915061307f8284612921565b91508190509392505050565b60006020820190506130a060008301846127e3565b92915050565b60006020820190506130bb60008301846127c5565b92915050565b60006080820190506130d660008301876127e3565b6130e360208301866127e3565b6130f06040830185613058565b81810360608301526131028184612876565b905095945050505050565b6000602082019050818103600083015261312781846127f2565b905092915050565b60006020820190506131446000830184612867565b92915050565b6000602082019050818103600083015261316481846128e8565b905092915050565b6000602082019050818103600083015261318581612952565b9050919050565b600060208201905081810360008301526131a5816129b8565b9050919050565b600060208201905081810360008301526131c581612a1e565b9050919050565b600060208201905081810360008301526131e581612a5e565b9050919050565b6000602082019050818103600083015261320581612ac4565b9050919050565b6000602082019050818103600083015261322581612b04565b9050919050565b6000602082019050818103600083015261324581612b6a565b9050919050565b6000602082019050818103600083015261326581612bd0565b9050919050565b6000602082019050818103600083015261328581612c36565b9050919050565b600060208201905081810360008301526132a581612c9c565b9050919050565b600060208201905081810360008301526132c581612d02565b9050919050565b600060208201905081810360008301526132e581612d42565b9050919050565b6000602082019050818103600083015261330581612da8565b9050919050565b6000602082019050818103600083015261332581612e0e565b9050919050565b6000602082019050818103600083015261334581612e4e565b9050919050565b6000602082019050818103600083015261336581612eb4565b9050919050565b6000602082019050818103600083015261338581612f1a565b9050919050565b600060208201905081810360008301526133a581612f80565b9050919050565b60006020820190506133c16000830184613058565b92915050565b6000604051905081810181811067ffffffffffffffff821117156133ee576133ed6137a1565b5b8060405250919050565b600067ffffffffffffffff821115613413576134126137a1565b5b601f19601f8301169050602081019050919050565b600067ffffffffffffffff821115613443576134426137a1565b5b601f19601f8301169050602081019050919050565b6000819050602082019050919050565b600081519050919050565b600081519050919050565b600081519050919050565b6000602082019050919050565b600082825260208201905092915050565b600082825260208201905092915050565b600082825260208201905092915050565b600082825260208201905092915050565b600081905092915050565b60006134f08261361c565b91506134fb8361361c565b9250827fffffffffffffffffffffffffffffffffffffffffffffffffffffffffffffffff038211156135305761352f613714565b5b828201905092915050565b60006135468261361c565b91506135518361361c565b92508261356157613560613743565b5b828204905092915050565b60006135778261361c565b91506135828361361c565b92508282101561359557613594613714565b5b828203905092915050565b60006135ab826135fc565b9050919050565b60006135bd826135fc565b9050919050565b60008115159050919050565b60007fffffffff0000000000000000000000000000000000000000000000000000000082169050919050565b600073ffffffffffffffffffffffffffffffffffffffff82169050919050565b6000819050919050565b82818337600083830152505050565b60005b83811015613653578082015181840152602081019050613638565b83811115613662576000848401525b50505050565b6000600282049050600182168061368057607f821691505b6020821081141561369457613693613772565b5b50919050565b60006136a58261361c565b91507fffffffffffffffffffffffffffffffffffffffffffffffffffffffffffffffff8214156136d8576136d7613714565b5b600182019050919050565b60006136ee8261361c565b91506136f98361361c565b92508261370957613708613743565b5b828206905092915050565b7f4e487b7100000000000000000000000000000000000000000000000000000000600052601160045260246000fd5b7f4e487b7100000000000000000000000000000000000000000000000000000000600052601260045260246000fd5b7f4e487b7100000000000000000000000000000000000000000000000000000000600052602260045260246000fd5b7f4e487b7100000000000000000000000000000000000000000000000000000000600052604160045260246000fd5b6000601f19601f8301169050919050565b6137ea816135a0565b81146137f557600080fd5b50565b613801816135c4565b811461380c57600080fd5b50565b613818816135d0565b811461382357600080fd5b50565b61382f8161361c565b811461383a57600080fd5b5056fea26469706673582212200f0fa6ac7f014d07111d9471fb83e7b75ecee9654ff10f69b48e6e124ab6ce2c64736f6c63430008000033",
  "immutableReferences": {},
  "source": "// SPDX-License-Identifier: MIT\npragma solidity >=0.8.0;\n\nimport \"@openzeppelin/contracts/utils/Counters.sol\";\nimport \"@openzeppelin/contracts/access/Ownable.sol\";\nimport \"@openzeppelin/contracts/token/ERC721/extensions/ERC721URIStorage.sol\";\nimport \"@openzeppelin/contracts/security/ReentrancyGuard.sol\";\n\ncontract ContractEstate is ERC721URIStorage, Ownable {\n    // using Counters for Counters.Counter;\n    uint256 private _tokenCounter;\n\n    mapping(uint256=>uint256) private counterToDeed;\n\n    address contractAddress;\n\n    address payable public _owner;\n    mapping(uint256 => propertyNft) private propertyNftData;\n\n    struct propertyNft {\n        uint256 deedNumber;\n        address  owner;\n        string tokenUri;\n        uint256 price;\n    }\n\n    constructor(address smartPropertyMarket)  ERC721(\"Title Transfer Token\", \"TTT\") {\n        _owner = payable(msg.sender);\n        contractAddress = smartPropertyMarket;\n    }\n\n    /// @notice Mints a new property NFT token\n    /// @param tokenURI is the ipfs URI for the NFT\n    /// @param _price is the property Value. Its passed by the caller from the ipfs metadata\n    /// @param _deed is the deed number to identify the Property (TokenID). Its passed by the caller. Its a from the ipfs metadata\n    /// @return uint256 The deed  of the minted NFT\n    function createPropertyNft( string memory tokenURI, uint256 _price, uint256 _deed)\n        public \n        returns (uint256)\n    {\n        require(_price>0);\n        require(_deed>0);\n\n        _safeMint(msg.sender, _deed);\n        _setTokenURI(_deed, tokenURI);\n        setApprovalForAll(contractAddress, true);\n\n        counterToDeed[_tokenCounter] = _deed;\n        \n        propertyNftData[_deed] = propertyNft(_deed, msg.sender, tokenURI, _price); //get price from ipfs\n        _tokenCounter++;\n\n        return _deed;\n    }\n\n    function checkIfPropertyExists(uint256 deed) public view returns(bool){\n        return _exists(deed);\n    }\n\n    /// @notice Gets the tokenURI of the NFT owned by the caller\n    /// @return nftProperty[] The array containing the tokenId, owner and tokenURI of the NFT owned by the caller    \n    function getUserProperties() public view returns(propertyNft[] memory) {\n        uint totalPropertyCount = _tokenCounter;\n        uint itemCount = 0;\n        uint currentIndex = 0;\n\n        for (uint i = 0; i < totalPropertyCount; i++) {\n            if (propertyNftData[counterToDeed[i]].owner == msg.sender) {\n                itemCount += 1;\n            }\n        }\n\n        propertyNft[] memory properties = new propertyNft[](itemCount);\n\n        for (uint i = 0; i < totalPropertyCount; i++) {\n            if (propertyNftData[counterToDeed[i]].owner == msg.sender) {\n                properties[currentIndex] = propertyNftData[counterToDeed[i]];\n                currentIndex += 1;\n            }\n        }\n\n        return properties;\n    }\n\n     /// @notice returns all NFT available\n    /// @return nftProperty[] The array containing the tokenId, owner and tokenURI of the NFT owned by the caller    \n    function getAllProperties() public view returns(propertyNft[] memory) {\n        uint totalPropertyCount = _tokenCounter;\n        uint currentIndex = 0;\n\n        propertyNft[] memory properties = new propertyNft[](totalPropertyCount);\n\n        for (uint i = 0; i < totalPropertyCount; i++) {\n \n                properties[currentIndex] = propertyNftData[counterToDeed[i]];\n                currentIndex += 1;\n    \n        }\n\n        return properties;\n    }\n\n}",
  "sourcePath": "/Users/vincent/Documents/GitHub/new-final-blockchain-developer-bootcamp-final-project/contracts/ContractEstate.sol",
  "compiler": {
    "name": "solc",
    "version": "0.8.0+commit.c7dfd78e.Emscripten.clang"
  },
  "schemaVersion": "3.4.3",
  "updatedAt": "2022-01-12T21:09:03.719Z",
  "devdoc": {
    "kind": "dev",
    "methods": {
      "approve(address,uint256)": {
        "details": "See {IERC721-approve}."
      },
      "balanceOf(address)": {
        "details": "See {IERC721-balanceOf}."
      },
      "createPropertyNft(string,uint256,uint256)": {
        "params": {
          "_deed": "is the deed number to identify the Property (TokenID). Its passed by the caller. Its a from the ipfs metadata",
          "_price": "is the property Value. Its passed by the caller from the ipfs metadata",
          "tokenURI": "is the ipfs URI for the NFT"
        },
        "returns": {
          "_0": "uint256 The deed  of the minted NFT"
        }
      },
      "getAllProperties()": {
        "returns": {
          "_0": "nftProperty[] The array containing the tokenId, owner and tokenURI of the NFT owned by the caller    "
        }
      },
      "getApproved(uint256)": {
        "details": "See {IERC721-getApproved}."
      },
      "getUserProperties()": {
        "returns": {
          "_0": "nftProperty[] The array containing the tokenId, owner and tokenURI of the NFT owned by the caller    "
        }
      },
      "isApprovedForAll(address,address)": {
        "details": "See {IERC721-isApprovedForAll}."
      },
      "name()": {
        "details": "See {IERC721Metadata-name}."
      },
      "owner()": {
        "details": "Returns the address of the current owner."
      },
      "ownerOf(uint256)": {
        "details": "See {IERC721-ownerOf}."
      },
      "renounceOwnership()": {
        "details": "Leaves the contract without owner. It will not be possible to call `onlyOwner` functions anymore. Can only be called by the current owner. NOTE: Renouncing ownership will leave the contract without an owner, thereby removing any functionality that is only available to the owner."
      },
      "safeTransferFrom(address,address,uint256)": {
        "details": "See {IERC721-safeTransferFrom}."
      },
      "safeTransferFrom(address,address,uint256,bytes)": {
        "details": "See {IERC721-safeTransferFrom}."
      },
      "setApprovalForAll(address,bool)": {
        "details": "See {IERC721-setApprovalForAll}."
      },
      "supportsInterface(bytes4)": {
        "details": "See {IERC165-supportsInterface}."
      },
      "symbol()": {
        "details": "See {IERC721Metadata-symbol}."
      },
      "tokenURI(uint256)": {
        "details": "See {IERC721Metadata-tokenURI}."
      },
      "transferFrom(address,address,uint256)": {
        "details": "See {IERC721-transferFrom}."
      },
      "transferOwnership(address)": {
        "details": "Transfers ownership of the contract to a new account (`newOwner`). Can only be called by the current owner."
      }
    },
    "version": 1
  },
  "userdoc": {
    "kind": "user",
    "methods": {
      "createPropertyNft(string,uint256,uint256)": {
        "notice": "Mints a new property NFT token"
      },
      "getAllProperties()": {
        "notice": "returns all NFT available"
      },
      "getUserProperties()": {
        "notice": "Gets the tokenURI of the NFT owned by the caller"
      }
    },
    "version": 1
  }
}